:100000000000042089030000710300007303000056
:100010007503000077030000790300000000000072
:100020000000000000000000000000007B03000052
:100030007D030000000000007F030000810300003A
:100040008303000083030000830300008303000098
:100050008303000083030000830300008303000088
:100060008303000083030000830300008303000078
:100070008303000083030000830300008303000068
:100080008303000083030000830300008303000058
:100090008303000083030000830300008303000048
:1000A0008303000083030000830300008303000038
:1000B0008303000083030000000000000000000034
:1000C0008303000083030000830300008303000018
:1000D0008303000083030000830300008303000008
:1000E000830300008303000083030000000000007E
:1000F00000000000830300000000000083030000F4
:1001000000000000000000000000000000000000EF
:1001100000000000000000000000000000000000DF
:1001200000000000000000000000000000000000CF
:1001300000000000000000000000000000000000BF
:1001400000000000000000000000000000000000AF
:10015000000000000000000000000000000000009F
:10016000000000000000000000000000000000008F
:10017000000000000000000000000000000000007F
:10018000000000000000000000000000000000006F
:10019000000000000000000000000000000000005F
:1001A000000000000000000000000000000000004F
:1001B000000000000000000000000000000000003F
:1001C000000000000000000000000000000000002F
:1001D000000000000000000000000000000000001F
:1001E000000000000000000000000000000000000F
:1001F00000000000000000000000000000000000FF
:100200003A493B480A1A02D0072291438D463949A0
:1002100039480A1A06D00722914381F3098802223D
:1002200082F3148835483649364A00F041F836489A
:100230003649374A00F03CF836483749374A00F02B
:1002400037F837483749384A00F032F837483849E4
:10025000384A00F02DF838483849394A00F028F873
:1002600038483949394A00F023F8394839490022D9
:1002700000F036F838483949002200F031F83848A3
:100280003849091A00F0C6FB374A904725482649E5
:10029000884205D00268043003B4904703BCF7E7F6
:1002A00000208646EC4600200021304A9047FEE7B9
:1002B000884214D0521A12D003460B43134303242E
:1002C000234206D1036804300B600431043AF9D1AB
:1002D0007047037801300B700131013AF9D1704752
:1002E000884202D002700130FAE770470000042013
:1002F00000E0032000000420000004202C0A00007D
:100300000000002004000020E4030000E4030000DB
:100310002C0A00002C0A0000000000200000002031
:100320002C0A00002C0A00002C0A00002C0A0000F5
:100330002C0A00002C0A00002C0A00002C0A0000E5
:100340002C0A0000300A00000400002004000020F5
:100350000400002008000020080000200800002001
:100360000800002008200020B1030000090400005C
:10037000FEE7FEE7FEE7FEE7FEE7FEE7FEE7FEE755
:10038000FEE7FEE700F002B8FFF7FCBF0F484FF0B2
:100390000701884385460E4880470E48016841F4AE
:1003A00070010160BFF34F8FBFF36F8FFFF728BF5E
:1003B00009480A490A4A884207D0521A05D00378E8
:1003C00001300B700131013AF9D17047000004206F
:1003D000ED07000088ED00E02C0A0000000000207E
:0403E00000000020F9
:1003E40082B00023019302E0019B01330193019B3E
:1003F400034A9342F8DD00BF00BF02B0704700BF5C
:100404003F420F0008B54FF0A0434FF40032C3F849
:1004140018254FF0A0434FF40032C3F80825FFF726
:10042400DFFF4FF0A0434FF40032C3F80C25FFF771
:10043400D7FFEEE7BFF34F8F00BF064BDB6803F433
:10044400E0620449044B1343CB60BFF34F8F00BFFA
:1004540000BFFDE700ED00E00400FA0582B0164B92
:100464001B680193154B1B680093019B082B1FD13C
:10047400009B052B1AD801A252F823F0990400001E
:100484009D040000A1040000A5040000A9040000CC
:10049400AD04000001230CE001230AE0012308E07D
:1004A400012306E0012304E0012302E0012300E02C
:1004B4000023184602B070473001001034010010C8
:1004C40082B0164B1B680193154B1B680093019B6C
:1004D400082B1FD1009B052B1AD801A252F823F038
:1004E400FD040000010500000505000009050000E9
:1004F4000D0500001105000001230CE001230AE0B2
:10050400012308E0012306E0012304E0012302E0C3
:10051400012300E00023184602B0704730010010A8
:100524003401001082B0164B1B680193154B1B68F5
:100534000093019B082B1FD1009B052B1AD801A205
:1005440052F823F06105000065050000690500000C
:100554006D050000710500007505000001230CE025
:1005640000230AE0002308E0002306E0002304E05F
:10057400002302E0002300E00023184602B0704785
:10058400300100103401001082B0164B1B68019337
:10059400154B1B680093019B082B1FD1009B052B57
:1005A4001AD801A252F823F0C5050000C9050000BD
:1005B400CD050000D1050000D5050000D9050000D7
:1005C40001230CE000230AE0002308E0002306E0F6
:1005D400002304E0002302E0002300E00023184687
:1005E40002B07047300100103401001082B0164B85
:1005F4001B680193154B1B680093019B082B1FD1AB
:10060400009B052B1AD801A252F823F029060000FA
:100614002D060000310600003506000039060000F2
:100624003D06000001230CE000230AE0002308E05B
:10063400002306E0002304E0002302E0002300E09E
:100644000023184602B07047300100103401001036
:1006540082B0164B1B680193154B1B680093019BDA
:10066400082B1FD1009B052B1AD801A252F823F0A6
:100674008D06000091060000950600009906000012
:100684009D060000A106000001230CE000230AE0FF
:10069400002308E0002306E0002304E0002302E036
:1006A400002300E00023184602B070473001001018
:1006B4003401001082B0164B1B680193154B1B6864
:1006C4000093019B082B1FD1009B052B1AD801A274
:1006D40052F823F0F1060000F5060000F9060000C8
:1006E400FD060000010700000507000001230CE0DF
:1006F40001230AE0012308E0012306E0012304E0CA
:10070400012302E0012300E00023184602B07047F1
:10071400300100103401001082B0164B1B680193A5
:10072400154B1B680093019B082B1FD1009B052BC5
:100734001AD801A252F823F0550700005907000007
:100744005D070000610700006507000069070000FD
:1007540000230CE000230AE0002308E0002306E065
:10076400012304E0012302E0012300E000231846F2
:1007740002B07047300100103401001008B5FFF7D3
:10078400CBFF0346002B07D04FF010234FF08042DD
:10079400D3F80832C2F8583500BF08BD00BF044B77
:1007A400D3F80034002BFAD000BF00BF704700BF5D
:1007B40000E0014000B583B00190054A019BC2F8F6
:1007C4000435FFF7EBFF00BF03B05DF804FB00BF87
:1007D40000E00140024B034A1A6000BF704700BFAB
:1007E400000000200090D00308B5FFF737FE034651
:1007F400002B0ED04FF080430022C3F80C214FF0A1
:1008040080430022C3F810214FF080430022C3F834
:100814003825FFF755FE0346002B76D04FF0805362
:10082400734AD3F80434C2F820354FF08053704A29
:10083400D3F80834C2F824354FF080536C4AD3F807
:100844000C34C2F828354FF08053694AD3F8103479
:10085400C2F82C354FF08053654AD3F81434C2F8EB
:1008640030354FF08053624AD3F81834C2F8343527
:100874004FF080535E4AD3F81C34C2F840354FF031
:1008840080535B4AD3F82034C2F844354FF0805388
:10089400574AD3F82434C2F848354FF08053544AA9
:1008A400D3F82834C2F84C354FF08053504AD3F86B
:1008B4002C34C2F850354FF080534D4AD3F83034BD
:1008C400C2F854354FF08053494AD3F83434C2F84F
:1008D40060354FF08053464AD3F83834C2F8643553
:1008E4004FF08053424AD3F83C34C2F868354FF095
:1008F40080533F4AD3F84034C2F86C354FF08053EC
:100904003B4AD3F84434C2F87035FFF70BFE034674
:10091400002B02D0374B384A1A60FFF735FE0346E6
:10092400002B03D0354BFB22C3F81825FFF75EFEDE
:100934000346002B0AD0324B1B6823F00F02314BC5
:100944001B6803F00F032E4913430B60FFF780FE6F
:100954000346002B03D02C4B4FF400721A60FFF7B0
:10096400A9FE0346002B0DD04FF08043D3F800348A
:1009740003F00103002B05D04FF080436FF0010218
:10098400C3F80024214BD3F88830204A43F4700381
:10099400C2F88830BFF34F8F00BFBFF36F8F00BF23
:1009A400FFF7ECFE4FF01023D3F80032002B05DBE9
:1009B4004FF01023D3F80432002B15DA0120FFF78F
:1009C400F9FE4FF010231222C3F80022FFF7E6FECF
:1009D4004FF010231222C3F80422FFF7DFFE002099
:1009E400FFF7E8FEFFF726FDFFF7F4FE00BF08BDA2
:1009F40000C000408C5600404881030000F00040D5
:100A0400E40E0040580200104096024000ED00E061
:100A1400082938BF7047416040F20401C2F2000166
:080A2400086000210160704729
:040A2C000090D00363
:04000003000003896D
:00000001FF
