:100000000000042089030000710300007303000056
:100010007503000077030000790300000000000072
:100020000000000000000000000000007B03000052
:100030007D030000000000007F030000810300003A
:100040008303000083030000830300008303000098
:100050008303000083030000830300008303000088
:100060008303000083030000830300008303000078
:100070008303000083030000830300008303000068
:100080008303000083030000830300008303000058
:100090008303000083030000830300008303000048
:1000A0008303000083030000830300008303000038
:1000B0008303000083030000000000000000000034
:1000C0008303000083030000830300008303000018
:1000D0008303000083030000830300008303000008
:1000E000830300008303000083030000000000007E
:1000F00000000000830300000000000083030000F4
:1001000000000000000000000000000000000000EF
:1001100000000000000000000000000000000000DF
:1001200000000000000000000000000000000000CF
:1001300000000000000000000000000000000000BF
:1001400000000000000000000000000000000000AF
:10015000000000000000000000000000000000009F
:10016000000000000000000000000000000000008F
:10017000000000000000000000000000000000007F
:10018000000000000000000000000000000000006F
:10019000000000000000000000000000000000005F
:1001A000000000000000000000000000000000004F
:1001B000000000000000000000000000000000003F
:1001C000000000000000000000000000000000002F
:1001D000000000000000000000000000000000001F
:1001E000000000000000000000000000000000000F
:1001F00000000000000000000000000000000000FF
:100200003A493B480A1A02D0072291438D463949A0
:1002100039480A1A06D00722914381F3098802223D
:1002200082F3148835483649364A00F041F836489A
:100230003649374A00F03CF836483749374A00F02B
:1002400037F837483749384A00F032F837483849E4
:10025000384A00F02DF838483849394A00F028F873
:1002600038483949394A00F023F8394839490022D9
:1002700000F036F838483949002200F031F83848A3
:100280003849091A00F046FD374A90472548264963
:10029000884205D00268043003B4904703BCF7E7F6
:1002A00000208646EC4600200021304A9047FEE7B9
:1002B000884214D0521A12D003460B43134303242E
:1002C000234206D1036804300B600431043AF9D1AB
:1002D0007047037801300B700131013AF9D1704752
:1002E000884202D002700130FAE770470000042013
:1002F00000E0032000000420000004205C0D00004A
:100300000000002004000020E4030000E4030000DB
:100310002C0D00005C0D00000000002000000020FB
:100320002C0D00002C0D00002C0D00002C0D0000E9
:100330002C0D00002C0D00002C0D00002C0D0000D9
:100340005A0D0000600D0000040000200400002091
:1003500004000020280000202800002028000020A1
:100360002800002028200020B1030000F90600002A
:10037000FEE7FEE7FEE7FEE7FEE7FEE7FEE7FEE755
:10038000FEE7FEE700F002B8FFF7FCBF0F484FF0B2
:100390000701884385460E4880470E48016841F4AE
:1003A00070010160BFF34F8FBFF36F8FFFF728BF5E
:1003B00009480A490A4A884207D0521A05D00378E8
:1003C00001300B700131013AF9D17047000004206F
:1003D000ED0A000088ED00E02C0D00000000002078
:0403E00000000020F9
:1003E40086B003900291019201238DF817309DF895
:1003F4001730204A039B13601E4A029B53601D4A18
:10040400019B9360039B44F20102934212D0039B2D
:1004140044F20202934220D1019B164AD360154B49
:10042400DB681B68134A9361124BDB685B68114AF3
:10043400D36112E0019B0F4A13610E4B1B699B6849
:100444000C4A53610B4B1B691B680A4A9361094BA5
:100454001B695B68074AD36100BF72B600BF00BF67
:100464009DF81730DBB2002BFAD162B600BF00BF93
:1004740006B070470400002000B587B003900291D5
:10048400019272B600BF039B44F20102934207D06B
:10049400039B44F20202934205D1019B059303E0BE
:1004A400019B049300E000BF074B1B6803F00103AA
:1004B400002B00D000BE019A02990398FFF790FF29
:1004C40000BF07B05DF804FBF0ED00E000B585B0B7
:1004D40003460091ADF80630BDF806300293009B48
:1004E400039302AB1A46002144F20200FFF7C4FF53
:1004F40000BF05B05DF804FB00B583B00190019B1B
:100504001B68184600F0CEF80346002B04D10B49B3
:100514004FF4F670FFF7DAFF019B1B681F2B02D81C
:100524004FF0A04306E0019B1B6803F01F02019BF0
:100534001A60034B184603B05DF804FB2C0D000051
:100544000003005000B585B00190084611461A46D4
:1005540003468DF803300B468DF8023013468DF8B0
:10056400013001AB1846FFF7C7FF03909DF8032045
:100574009DF802305B001A439DF801309B001A433A
:100584009DF818301B0242EA03019DF81C301B043D
:10059400019A1943039B02F5E07243F8221000BF4D
:1005A40005B05DF804FB00B585B00390002301930A
:1005B400002300930023012201210398FFF7C2FFC7
:1005C40000BF05B05DF804FB00B585B003900B4691
:1005D4008DF80B309DF80B3000220192002200921E
:1005E400002200210398FFF7ADFF00BF05B05DF8BE
:1005F40004FB00B585B0019001AB1846FFF77CFF02
:100604000390019B012202FA03F31946039800F0B8
:1006140035F800BF05B05DF804FB00B585B0019066
:1006240001AB1846FFF768FF0390019B012202FA11
:1006340003F31946039800F02BF800BF05B05DF8EA
:1006440004FB00B585B0019001AB1846FFF754FFD9
:100654000390039800F00AF80246019B22FA03F380
:1006640003F00103184605B05DF804FB82B0019065
:10067400019BD3F81035184602B0704782B0019040
:100684000091019B009AC3F8082500BF02B070478F
:1006940082B001900091019B009AC3F80C2500BF21
:1006A40002B0704784B00190019B5B090293002360
:1006B4000393029B002B03D0029B012B04D007E081
:1006C4004FF0FF33039303E04FF6FF73039300BF30
:1006D400019B03F01F030193039A019B22FA03F386
:1006E40003F00103002B14BF01230023DBB21846DF
:1006F40004B0704708B51120FFF755FF03210D2002
:10070400FFF762FF1120FFF774FF0020FFF799FF46
:100714000346002BF9D01120FFF77FFF00BF002014
:10072400FFF78FFF0346002BF9D11120FFF761FF7C
:10073400EBE70000BFF34F8F00BF064BDB6803F409
:10074400E0620449044B1343CB60BFF34F8F00BFF7
:1007540000BFFDE700ED00E00400FA0582B0164B8F
:100764001B680193154B1B680093019B082B1FD139
:10077400009B052B1AD801A252F823F09907000018
:100784009D070000A1070000A5070000A9070000BD
:10079400AD07000001230CE001230AE0012308E077
:1007A400012306E0012304E0012302E0012300E029
:1007B4000023184602B070473001001034010010C5
:1007C40082B0164B1B680193154B1B680093019B69
:1007D400082B1FD1009B052B1AD801A252F823F035
:1007E400FD070000010800000508000009080000DA
:1007F4000D0800001108000001230CE001230AE0A9
:10080400012308E0012306E0012304E0012302E0C0
:10081400012300E00023184602B0704730010010A5
:100824003401001082B0164B1B680193154B1B68F2
:100834000093019B082B1FD1009B052B1AD801A202
:1008440052F823F061080000650800006908000000
:100854006D080000710800007508000001230CE019
:1008640000230AE0002308E0002306E0002304E05C
:10087400002302E0002300E00023184602B0704782
:10088400300100103401001082B0164B1B68019334
:10089400154B1B680093019B082B1FD1009B052B54
:1008A4001AD801A252F823F0C5080000C9080000B4
:1008B400CD080000D1080000D5080000D9080000C8
:1008C40001230CE000230AE0002308E0002306E0F3
:1008D400002304E0002302E0002300E00023184684
:1008E40002B07047300100103401001082B0164B82
:1008F4001B680193154B1B680093019B082B1FD1A8
:10090400009B052B1AD801A252F823F029090000F4
:100914002D090000310900003509000039090000E3
:100924003D09000001230CE000230AE0002308E055
:10093400002306E0002304E0002302E0002300E09B
:100944000023184602B07047300100103401001033
:1009540082B0164B1B680193154B1B680093019BD7
:10096400082B1FD1009B052B1AD801A252F823F0A3
:100974008D09000091090000950900009909000003
:100984009D090000A109000001230CE000230AE0F6
:10099400002308E0002306E0002304E0002302E033
:1009A400002300E00023184602B070473001001015
:1009B4003401001082B0164B1B680193154B1B6861
:1009C4000093019B082B1FD1009B052B1AD801A271
:1009D40052F823F0F1090000F5090000F9090000BC
:1009E400FD090000010A0000050A000001230CE0D3
:1009F40001230AE0012308E0012306E0012304E0C7
:100A0400012302E0012300E00023184602B07047EE
:100A1400300100103401001082B0164B1B680193A2
:100A2400154B1B680093019B082B1FD1009B052BC2
:100A34001AD801A252F823F0550A0000590A0000FE
:100A44005D0A0000610A0000650A0000690A0000EE
:100A540000230CE000230AE0002308E0002306E062
:100A6400012304E0012302E0012300E000231846EF
:100A740002B07047300100103401001008B5FFF7D0
:100A8400CBFF0346002B07D04FF010234FF08042DA
:100A9400D3F80832C2F8583500BF08BD00BF044B74
:100AA400D3F80034002BFAD000BF00BF704700BF5A
:100AB40000E0014000B583B00190054A019BC2F8F3
:100AC4000435FFF7EBFF00BF03B05DF804FB00BF84
:100AD40000E00140024B034A1A6000BF704700BFA8
:100AE400000000200090D00308B5FFF737FE03464E
:100AF400002B0ED04FF080430022C3F80C214FF09E
:100B040080430022C3F810214FF080430022C3F831
:100B14003825FFF755FE0346002B76D04FF080535F
:100B2400734AD3F80434C2F820354FF08053704A26
:100B3400D3F80834C2F824354FF080536C4AD3F804
:100B44000C34C2F828354FF08053694AD3F8103476
:100B5400C2F82C354FF08053654AD3F81434C2F8E8
:100B640030354FF08053624AD3F81834C2F8343524
:100B74004FF080535E4AD3F81C34C2F840354FF02E
:100B840080535B4AD3F82034C2F844354FF0805385
:100B9400574AD3F82434C2F848354FF08053544AA6
:100BA400D3F82834C2F84C354FF08053504AD3F868
:100BB4002C34C2F850354FF080534D4AD3F83034BA
:100BC400C2F854354FF08053494AD3F83434C2F84C
:100BD40060354FF08053464AD3F83834C2F8643550
:100BE4004FF08053424AD3F83C34C2F868354FF092
:100BF40080533F4AD3F84034C2F86C354FF08053E9
:100C04003B4AD3F84434C2F87035FFF70BFE034671
:100C1400002B02D0374B384A1A60FFF735FE0346E3
:100C2400002B03D0354BFB22C3F81825FFF75EFEDB
:100C34000346002B0AD0324B1B6823F00F02314BC2
:100C44001B6803F00F032E4913430B60FFF780FE6C
:100C54000346002B03D02C4B4FF400721A60FFF7AD
:100C6400A9FE0346002B0DD04FF08043D3F8003487
:100C740003F00103002B05D04FF080436FF0010215
:100C8400C3F80024214BD3F88830204A43F470037E
:100C9400C2F88830BFF34F8F00BFBFF36F8F00BF20
:100CA400FFF7ECFE4FF01023D3F80032002B05DBE6
:100CB4004FF01023D3F80432002B15DA0120FFF78C
:100CC400F9FE4FF010231222C3F80022FFF7E6FECC
:100CD4004FF010231222C3F80422FFF7DFFE002096
:100CE400FFF7E8FEFFF726FDFFF7F4FE00BF08BD9F
:100CF40000C000408C5600404881030000F00040D2
:100D0400E40E0040580200104096024000ED00E05E
:100D1400082938BF7047416040F22401C2F2000143
:080D2400086000210160704726
:100D2C002E2E2F2E2E2F2E2E2F2E2E2F2E2E2F2ED2
:100D3C002E2F6D6F64756C65732F6E7266782F68CD
:0E0D4C00616C2F6E72665F6770696F2E6800B3
:040D5C000090D00330
:04000003000003896D
:00000001FF
